:1000000007308A00A52F00000A108A100A11820703
:100010003134323433344134343435343634423488
:1000200037343834393443342A3430342334443484
:100030000C00A0214123452A45294110C422202932
:100040004126551000013117A026EF31E3300001A1
:100050003217A024F2347334000133172026613A9A
:10006000F43200010C00A0214123452A452941100A
:10007000C422202941265510000134172023F230D4
:10008000703865003517A0207A3AE531611000011B
:100090003617A020ED32F234E330EE3700010C00C9
:1000A000A0214123452A45294110C4222029412667
:1000B000551000013717A021613961356936EC37D9
:1000C00000013817A0216138F03AE33169376F0039
:1000D0003917202BE932EE3273000C000C0047294F
:1000E000C121C9205310D0275210C3274D28D22038
:1000F00052005039653861396137E437A0297510ED
:10010000D032E434E4370001D437ED32A039751031
:10011000C3306D31E9373A1024102517323300000F
:100120000C000C005039E531E9373A10241025173E
:100130003233000149376739E5396510D33AA022D7
:10014000E632633A693B6F004937671D2517303344
:100150000001D3306C1D2517303300004937671D6F
:100160002517303300000C00A0214123452A4529E2
:100170004110C42220294126551000014536693519
:100180006110F33AA02161336510A82F2900D23203
:10019000F032F4347210CD32EE3A282229000C00ED
:1001A000A026EF31E33020000C00A023D220C3248E
:1001B000C129201D291000000C00A024F234733442
:1001C00020000C00A023D220C324C129201D291007
:1001D00000000C002026613AF43220000C00A0231D
:1001E000D220C324C129201D291000000C00202387
:1001F000F2307038651000010C00A023D220C32417
:10020000C129201D291000000C00A0207A3AE531F8
:10021000611000010C00A023D220C324C129201D9D
:10022000291000000C00A020ED32F234E330EE374C
:1002300020000C00A023D220C324C129201D291096
:1002400000000C00A021613961356936EC372000CF
:100250000C00A023D220C324C129201D2910000096
:100260000C00A0216138F531E334EE3720000C009A
:10027000A023D220C324C129201D291000000C0076
:10028000202BE932EE32731000010C00A023D220A3
:10029000C324C129201D2910000074308400831359
:1002A0000008031961290130F800F701F70B5629FE
:1002B000F80B55294A30F700F70B5C295F29800BB2
:1002C000532908008316200EF039F7000F308312EF
:1002D00006057704860000000914831609107029AA
:1002E0008312091083160910831208000608F7000C
:1002F000060E0F39F800080083160910891009113D
:1003000083128910831689100F300605F038860095
:10031000831209158316091100008312091483162C
:10032000091000008312762178088316A00083123A
:10033000091083160910000083120914831609108E
:100340000000831276217808FE0009108316091038
:100350000F3006058600200EF700F030F70577080D
:100360007E04F8007808FE00FE1B8429FC08031DAB
:10037000BD2983128910BF2983168312891483161D
:1003800089100000831209118316091100008312DD
:100390000910831609107D0EFE000F30FE057E0841
:1003A000A000831262217D080F39FE008316A00091
:1003B0008312622108002830D7000C30D8000130A9
:1003C000D9000630DA00091083160910831289104B
:1003D0008316891083120911831609110F3006053F
:1003E00086000910891009110F30F40083124D2185
:1003F0000130D6005608033C031C082A033083163C
:10040000A000831262210530F4004D21D60AFA299A
:1004100002308316A000831262210530F4004D21C2
:10042000D6015608033C031C212A57305607840086
:1004300083130008DB00FC015B08FD007C21D60A69
:10044000112A8A110A12F12F8A110A12F22F750B42
:100450002A2A2D2A4030F6002E2AF6010130740295
:10046000F60776088038FB00FC017B08FD007C2144
:1004700008007308073A0319472A0B3A03194C2A54
:10048000063A0319542A023A03195A2A5F2A0130FC
:10049000F400F5002722642AFC010130FD007C21D4
:1004A0000230F4004D21642A0130F4000230F500DE
:1004B0002722642AFC011030FD007C21642A0130CF
:1004C000FC007308FD007C2108000B08E6008B137C
:1004D000831603178C170C140000000083120313FB
:1004E000E61B8B1703170C087F390319B92A03136E
:1004F000E60003170D080313E70003170F080313A3
:10050000E8006608F3003922670803178D0003131B
:10051000680803178F0003130B08E9008B13831679
:1005200003178C170C140000000083120313E91B3F
:100530008B1703170C0D0E0D7F390319B92A0313FE
:10054000E60003170D080313E70003170F08031352
:10055000E8006608F3003922670803178D000313CB
:10056000680803178F008D0A03198F0A0313652A81
:10057000031703130800183003178D0000308F0095
:10058000031365220230F4000130F50027221930F0
:1005900003178D0000308F0003136522C830F4006C
:1005A0004D210130F4000230F500272223300317DB
:1005B0008D0000308F00031365223230F4004D218E
:1005C0001530F4000130F5002722283003178D0084
:1005D00000308F00031365223230F4004D211530B6
:1005E000F4000430F50027222D3003178D00003071
:1005F0008F00031365220230D600FA30F4004D213B
:10060000D60BFD2A323003178D0000308F00031304
:1006100065220230F4000130F50027223330031741
:100620008D0000308F0003136522C830F4004D2187
:100630000130F4000230F50027223D3003178D0011
:1006400000308F00031365223230F4004D21153045
:10065000F4000130F5002722423003178D000030EE
:100660008F00031365223230F4004D211530F40061
:100670000430F5002722483003178D0000308F002A
:10068000031365220230D600FA30F4004D21D60B58
:10069000442B4F3003178D0000308F000313652269
:1006A0000230F4000130F5002722503003178D008E
:1006B00000308F0003136522C830F4004D21013053
:1006C000F4000230F50027225A3003178D00003065
:1006D0008F00031365223230F4004D211530F400F1
:1006E0000130F5002722613003178D0000308F00A4
:1006F000031365223230F4004D211530F40004302C
:10070000F5002722683003178D0000308F00031397
:1007100065220230D600FA30F4004D21D60B8B2B27
:100720006D3003178D0000308F00031365228A118E
:100730000A12F62FE201A00A2008213C0318FA2B26
:100740002308FC3E0318BD2B043E012CEF3083161A
:10075000860083128600BD2BDF308316860083124D
:100760008600BD2BBF308316860083128600BD2B0A
:100770007F308316860083128600211CC92B060851
:100780000F390F3C031DC82B21102208E200A201E3
:10079000F92B06080F390F3C0319F42B0608013911
:1007A000031DD42BE301E82B06080239031DDB2BC4
:1007B0000130E300E82B06080439031DE22B023068
:1007C000E300E82B06080839031DE82B0330E3009B
:1007D000630DF700F70DFC30F705770823070420B9
:1007E000F800A2002114F92BA30A2308043C0319E2
:1007F000A301A001FF308316860083126208F8006F
:1008000008000A108A100A158207A62BAC2BB22BFF
:10081000B82B0B08E7008B13831603178C170C14E7
:100820000000000083120313E71B8B170318402CF2
:1008300003170C087F390313E70003170D08031390
:10084000E80003170F080313E9006708F3003922D3
:10085000680803178D000313690803178F0003133B
:100860000B08EA008B13831603178C170C14000077
:10087000000083120313EA1B8B17E60B402C5F2C3E
:1008800003170C0D0E0D7F390313E70003170D0836
:100890000313E80003170F080313E9006708F300C8
:1008A0003922680803178D000313690803178F00A6
:1008B0008D0A03198F0A03100313E60B092C080095
:1008C0008318652CA03084008313F701F801F90127
:1008D000FA018316A001A101A201A3017E087D04F3
:1008E0007C047B040319A42C2030A4000310F30D16
:1008F000F40DF50DF60DA00DA10DA20DA30D7E08B2
:100900002302031D8D2C7D082202031D8D2C7C08E3
:100910002102031D8D2C7B082002031C9E2C7B08CA
:10092000A0027C08031C7C0FA1027D08031C7D0F24
:10093000A2027E08031C7E0FA3020314F70DF80D1C
:10094000F90DFA0DA40B762C20088000840A2108EA
:100950008000840A22088000840A23088000831211
:1009600008000408EB006A08ED000319542D69081B
:10097000F6006808F5006708F4006608F300FE0159
:10098000FD012030FC008230FB0073080319442D68
:100990008316A0007B08031DCF2C8312442DA007D3
:1009A0000318DD2C7F30A0020318D82C8312442DAD
:1009B000031DDC2C8312442DE32C8130A007031C83
:1009C000E32C8312442D2008F700F801F901FA0105
:1009D0007408A400A4177508A3007608A2001830B4
:1009E000A000A101221C0C2D7E08FA07031CFE2C7E
:1009F000F90A031DFE2CF80A0319A1177D08F9074F
:100A0000031C052DF80A0319A1177C08F500F5173A
:100A10007508F8070318A117A10DF80CF90CFA0CCA
:100A2000A40CA30CA20C0310A00BF12C0130F707AF
:100A3000031C1C2D8312442DF81B262DA40DFA0D2A
:100A4000F90DF80DF70B262D8312442DA41F392D17
:100A5000FA0A031D392DF90A031D392DF80A031D61
:100A6000392DF80CF90CFA0CF70A031D392D8312F5
:100A7000442D7408A1007C08A106A11F412DF81780
:100A8000492DF813492D8312F701F801F901FA01F4
:100A900083167A088312E9007908E8007808E700ED
:100AA0007708E600ED0BB72C6908F6006808F5003A
:100AB0006708F4006608F3007308B63CF300FA0117
:100AC0007408FB00F4170310F40CF50CF60CFA0C88
:100AD000F90CF80CF70CF30B632DFB1F7A2DF709BB
:100AE000F809F909FA09F70A0319F80A0319F90AC2
:100AF0000319FA0A7A08E9007908E8007808E7009B
:100B00007708E600E91F912DEB03EB16E609E709EC
:100B1000E809E909E60A0319E70A0319E80A0319CB
:100B2000E90A3B30F2009A30F100CA30F000EF01E0
:100B30000A30ED006A080319EB0A8314663084005A
:100B400083136908F6006808F5006708F400660872
:100B5000F3007208FE007108FD007008FC006F08C9
:100B6000FB0060247808F708031DC92D6A0A6D028E
:100B70000319C92D6B080319CB2D0F396D02031909
:100B8000C32D0318FB2DEB1BFB2D6B1BCB2D203036
:100B9000F72D2030EB05EB1ED92DEB126A08031D53
:100BA000EB037708EB002D30F30039226B08F700D8
:100BB000EB016A086D02031DE72D7708EB002E306C
:100BC000F30039226B08F7002030EB05003030309D
:100BD000EB1EF72DEB126A08031DEB037708EB0001
:100BE0002D30F30039226B08F700EB013030F707A6
:100BF0007708F300392283107208F6007108F500B7
:100C00007008F4006F08F300FE01FD01FC010A30DA
:100C1000FB0060247A08F2007908F1007808F000FF
:100C20007708EF00ED0B9D2D080080308318E70654
:100C3000EC01ED016308EB006708EB06620803199D
:100C4000052FEA00F700660803190E2FEA020319C0
:100C5000AA2E031C682E6708F000F0176808EF0042
:100C60006908EE00ED010310F00CEF0CEE0CED0C3A
:100C7000EA0B322EEB1F3F2E6C14222F6C106A10E1
:100C80006C16653084008313372F6C12EB1B522EC9
:100C90006A1C5D2EF00CEF0CEE0CED0CF70A03193C
:100CA0001D2F5D2EF01B602E0310ED0DEE0DEF0DD0
:100CB000F00DF70303191D2F522E6C17CA2E6C135B
:100CC0006308EB00EB1F662EF017162FF013162F9C
:100CD0006608EA00F7006208EA026308F000F0170D
:100CE0006408EF006508EE00ED010310F00CEF0C56
:100CF000EE0CED0CEA0B742EEB1F812EEC14222F60
:100D0000EC106A10EC16693084008313372FEC1254
:100D1000EB1B942E6A1C9F2EF00CEF0CEE0CED0CCE
:100D2000F70A03191D2F9F2EF01BA22E0310ED0DA5
:100D3000EE0DEF0DF00DF70303191D2F942EEC1798
:100D4000CA2EEC136708EB00EB1FA82EF017162F26
:100D5000F013162F6708F000F0176808EF00690815
:100D6000EE00EB1FB72EF0136C15222F6C11ED0166
:100D70006A10653084008313372FEB1BE02E630865
:100D8000EB006A1CCA2EF00CEF0CEE0CED0CF70A0F
:100D900003191D2FED1FDB2EEE0A031DDB2EEF0ABC
:100DA000031DDB2EF00A031DDB2EF00CEF0CEE0C06
:100DB000F70A03191D2F6C1B5F2EEC1BA12EFF2EB3
:100DC0008030F006F01FE82E222F6708EB00F52E8A
:100DD0006308EB00F008031DF52EEF08031DF52E48
:100DE000EE08031DF52EF701162FF01BFF2E031042
:100DF000ED0DEE0DEF0DF00DF70BF52E1D2FEB1F8A
:100E0000032FF017162FF013162F6608F700670848
:100E1000F0006808EF006908EE00162F6208F7007E
:100E20006308F0006408EF006508EE007008F80041
:100E30006F08F9006E08FA00552FF701F801F90163
:100E4000FA01552FED01EE09EF09F009ED09ED0A60
:100E5000031D302FEE0A031D302FEF0A0319F00A8D
:100E60006C183E2EEC18802E6C19B62EE52E00085C
:100E7000EE07031C412FEF0A031D412FF00A03194F
:100E80006A1484030008EF07031C492FF00A0319B2
:100E90006A1484030008801F803AF00703186A145C
:100EA0006C1A452EEC1A872EBD2E0800B33003179E
:100EB0008D0000308F00031365220230F4000130F2
:100EC000F5002722B43003178D0000308F00031384
:100ED0006522C830F4004D211530F4000130F500D2
:100EE0002722BE3003178D0000308F0003136522C8
:100EF0001530F4000430F5002722C73003178D00A9
:100F000000308F00031365229A237808D600560814
:100F1000443C03198F2F5608643C031D912FA22FC8
:100F2000A12F5608303C0318A12F5608393C031C4A
:100F3000A12F30305602D700D8008A15BD298A115A
:100F4000A22F842F8A110A12F72F03081F3983005A
:100F5000A7014030A6001C30A5008B30A400AB01D7
:100F60008030AA003B30A9008A30A800AF01A03031
:100F7000AE000C30AD008B30AC00B301B2017A3062
:100F8000B1008B30B000B7018030B6003B30B50007
:100F90008B30B400BB01BA017A30B9008930B80097
:100FA000BF01BE017A30BD008B30BC00C301C2015D
:100FB0007A30C1008930C000C7018030C6003B30A4
:100FC000C5008B30C40083161F149F141F159F117A
:100FD00007309C0083138312A0012110A201A301FA
:100FE000DB29242A831681138312BB2A562FF52F5F
:020FF00063009C
:101000000130F4000230F5008A1127228A1592304F
:1010100003178D0000308F0003100A300313E60021
:101020008A1109248A15893084005C08E9005B086C
:10103000E8005A08E7005908E6000230EA008A1181
:10104000B1248A153230F4008A114D218A151530E9
:10105000F4000130F5008A1127228A159A3003170F
:101060008D0000308F008A11031365228A153230FB
:10107000F4008A114D218A155C08CF005B08CE0070
:101080005A08CD005908CC00CB01CA01C901C801DA
:101090001530F4000430F5008A1127228A15A43097
:1010A00003178D0000308F00031004300313E60097
:1010B0008A1109248A15893084004B08E9004A08FE
:1010C000E8004908E7004808E600EA018A11B1246F
:1010D0008A152130F4000430F5008A1127228A1580
:1010E000A93003178D0000308F0003100430031364
:1010F000E6008A1109248A15893084004F08E90026
:101100004E08E8004D08E7004C08E600EA018A11A5
:10111000B1248A158A119A238A157808DD005D08A2
:10112000633C031997285D08433C031DBB298310CA
:101130004B08E5004A08E4004908E3004808E200DB
:10114000E901E8017A30E7008830E6008A111526C7
:101150008A157A08CB007908CA007808C900770890
:10116000C8001530F4000430F5008A1127228A15D2
:10117000AE3003178D0000308F00031004300313CE
:10118000E6008A1109248A15893084004B08E90099
:101190004A08E8004908E7004808E600EA018A1121
:1011A000B1248A154F08E5004E08E4004D08E3001D
:1011B0004C08E2004B08E9004A08E8004908E7004B
:1011C0004808E6006308EA006708EA06EA1FED2817
:1011D00003110310E31B031420296308EA006608C7
:1011E000EB006208EB020319FB28EA1F2029030821
:1011F000013A830020296708EB006308EB0203191A
:101200000729EA1F20290308013A830020296808DA
:10121000EB006408EB0203191329EA1F20290308D5
:10122000013A830020296908EB006508EB020319E5
:101230001F29EA1F20290308013A830020290310EF
:1012400003182429031DBB2983144B08E5004A0811
:10125000E4004908E3004808E2004F08E9004E08AE
:10126000E8004D08E7004C08E6008A1115268A15AB
:101270007A08E1007908E0007808DF007708DE00EE
:101280006108E5006008E4005F08E3005E08E20032
:101290006E3003178D0000308F008A110313652212
:1012A0008A150130F400F5008A1127228A156F3063
:1012B00003178D0000308F008A11031365228A15F1
:1012C0006430F4008A114D218A151530F400013084
:1012D000F5008A1127228A15793003178D00003016
:1012E0008F008A11031365228A151530F40004302B
:1012F000F5008A1127228A150830E600FA30F4003A
:101300008A114D218A15E60B7E29843003178D0042
:1013100000308F00031012300313E6008A110924F5
:101320008A15893084006508E9006408E8006308CC
:10133000E7006208E6000230EA008A11B1248A154B
:101340000830E600FA30F4008A114D218A15E60BC8
:10135000A229903003178D0000308F008A110313EB
:1013600065228A15CB01CA01C901C801CF01CE018E
:10137000CD01CC01BC298A280800913003178D00CB
:1013800000308F008A11031365228A15013058023C
:10139000F73E03183F2E093E4B2E4D30D4006F30E0
:1013A000D5002708D3002608D2002508D10024083C
:1013B000D0005308DC005208DB005108DA00500866
:1013C000D9000020CF3003178D0000308F008A1124
:1013D000031365228A150830F4000130F5008A11E4
:1013E00027228A15D03003178D0000308F008A1114
:1013F000031365228A158316881183128815043019
:10140000D900FA30F4008A114D218A15D90B012A2E
:10141000831688118312881183160810831208140A
:101420000430D900FA30F4008A114D218A15D90B05
:10143000122A83160810831208108316881083124C
:1014400088140230D900FA30F4008A114D218A152F
:10145000D90B232A8316881083128810831608114B
:10146000831208150230D900FA30F4008A114D2198
:101470008A15D90B342A8316081183120811D43027
:1014800003178D0000308F008A11031365228A151F
:101490000530F4000230F5008A1127228A15D53074
:1014A00003178D0000308F008A11031365228A15FF
:1014B0000430D900C830F4008A114D218A15D90BA7
:1014C0005A2A3F2E4930D4007230D5002B08D30061
:1014D0002A08D2002908D1002808D0005308DC00CF
:1014E0005208DB005108DA005008D9000020DC3037
:1014F00003178D0000308F008A11031365228A15AF
:101500000830F4000230F5008A1127228A15DD30F8
:1015100003178D0000308F008A11031365228A158E
:1015200083160810831208140430D900FA30F4002E
:101530008A114D218A15D90B962A83160810831219
:10154000081083160812831208160430D900C83018
:10155000F4008A114D218A15D90BA72A8316081287
:101560008312081283160811831208150230D9005D
:10157000FA30F4008A114D218A15D90BB82A831646
:10158000081183120811E13003178D0000308F001D
:101590008A11031365228A150530F4000230F50024
:1015A0008A1127228A15E23003178D0000308F0040
:1015B0008A11031365228A150430D900C830F4005B
:1015C0008A114D218A15D90BDE2A3F2E4C30D400CA
:1015D0006130D5002F08D3002E08D2002D08D1008D
:1015E0002C08D0005308DC005208DB005108DA0058
:1015F0005008D9000020E93003178D0000308F001B
:101600008A11031365228A150830F4000230F500B0
:101610008A1127228A15EA3003178D0000308F00C7
:101620008A11031365228A15831608108312081481
:101630000430D900C830F4008A114D218A15D90B25
:101640001A2B831608108312081083168810831231
:1016500088140630D900FA30F4008A114D218A1519
:10166000D90B2B2B83168810831288108316081130
:10167000831208150230D900FA30F4008A114D2186
:101680008A15D90B3C2B8316081183120811EE30F2
:1016900003178D0000308F008A11031365228A150D
:1016A0000530F4000230F5008A1127228A15EF3048
:1016B00003178D0000308F008A11031365228A15ED
:1016C0000430D900C830F4008A114D218A15D90B95
:1016D000622B3F2E4630D4007230D5003308D30041
:1016E0003208D2003108D1003008D0005308DC00A5
:1016F0005208DB005108DA005008D9000020F6300B
:1017000003178D0000308F008A11031365228A159C
:101710000830F4000230F5008A1127228A15F730CC
:1017200003178D0000308F008A11031365228A157C
:1017300083160810831208140430D900C830F4004E
:101740008A114D218A15D90B9E2B831608108312FE
:10175000081083160813831208170630D900FA30D0
:10176000F4008A114D218A15D90BAF2B831608136B
:1017700083120813FC3003178D0000308F008A118C
:10178000031365228A150530F4000230F5008A1132
:1017900027228A15FD3003178D0000308F008A1133
:1017A000031365228A150430D900C830F4008A1169
:1017B0004D218A15D90BD52B3F2E4130D4007A30DC
:1017C000D5003708D3003608D2003508D1003408D8
:1017D000D0005308DC005208DB005108DA00500842
:1017E000D9000020043003178D0001308F008A11CA
:1017F000031365228A150830F4000230F5008A11BF
:1018000027228A15053003178D0001308F008A11B9
:10181000031365228A1583160810831208140430F6
:10182000D900C830F4008A114D218A15D90B112C2A
:1018300083160810831208108316881383128817E2
:101840000830D900FA30F4008A114D218A15D90BDD
:10185000222C83168813831288138316081183128F
:1018600008150430D900FA30F4008A114D218A1588
:10187000D90B332C83160811831208110A30031771
:101880008D0001308F008A11031365228A150530FF
:10189000F4000230F5008A1127228A150B30031755
:1018A0008D0001308F008A11031365228A150430E0
:1018B000D900C830F4008A114D218A15D90B592C52
:1018C0003F2E4130D4006D30D5003B08D3003A089C
:1018D000D2003908D1003808D0005308DC00520883
:1018E000DB005108DA005008D9000020123003173D
:1018F0008D0001308F008A11031365228A1508308C
:10190000F4000230F5008A1127228A1513300317DC
:101910008D0001308F008A11031365228A1583160A
:101920000810831208140430D900C830F4008A115A
:101930004D218A15D90B952C831608108312081097
:1019400083168812831288160830D900FA30F40002
:101950008A114D218A15D90BA62C83168812831261
:101960008812193003178D0001308F008A1103137C
:1019700065228A150530F4000230F5008A1127220D
:101980008A151A3003178D0001308F008A11031356
:1019900065228A150430D900C830F4008A114D211F
:1019A0008A15D90BCC2C3F2E4330D4006130D500A2
:1019B0003F08D3003E08D2003D08D1003C08D000CB
:1019C0005308DC005208DB005108DA005008D90047
:1019D0000020213003178D0001308F008A1103137E
:1019E00065228A150830F4000230F5008A1127229A
:1019F0008A15223003178D0001308F008A110313DE
:101A000065228A1583160810831208140430D90041
:101A1000C830F4008A114D218A15D90B082D831680
:101A20000810831208108316081283120816043057
:101A3000D900FA30F4008A114D218A15D90B192DDD
:101A40008316081283120812283003178D00013004
:101A50008F008A11031365228A150530F4000230C5
:101A6000F5008A1127228A15293003178D000130CD
:101A70008F008A11031365228A150430D900C830FB
:101A8000F4008A114D218A15D90B3F2D3F2E43308A
:101A9000D4006130D5004308D3004208D200410889
:101AA000D1004008D0005308DC005208DB00510888
:101AB000DA005008D9000020303003178D000130C3
:101AC0008F008A11031365228A150830F400023052
:101AD000F5008A1127228A15313003178D00013055
:101AE0008F008A11031365228A158316081083124A
:101AF00008140430D900C830F4008A114D218A1529
:101B0000D90B7B2D831608108312081083168810BA
:101B1000831288140430D900FA30F4008A114D2160
:101B20008A15D90B8C2D8316881083128810831682
:101B30000811831208150230D900FA30F4008A1116
:101B40004D218A15D90B9D2D83160811831208117A
:101B5000373003178D0001308F008A11031365227F
:101B60008A150530F4000230F5008A1127228A1503
:101B7000383003178D0001308F008A11031365225E
:101B80008A150430D900C830F4008A114D218A1515
:101B9000D90BC32D3F2E5630D4006930D5004708ED
:101BA000D3004608D2004508D1004408D0005308AD
:101BB000DC005208DB005108DA005008D900002090
:101BC0003F3003178D0001308F008A110313652207
:101BD0008A150830F4000230F5008A1127228A1590
:101BE000403003178D0001308F008A1103136522E6
:101BF0008A1583160810831208140430D900C830DF
:101C0000F4008A114D218A15D90BFF2D8316081077
:101C10008312081083160813831208170430D900A2
:101C2000FA30F4008A114D218A15D90B102E831633
:101C3000081383120813453003178D0001308F00FD
:101C40008A11031365228A150530F4000230F5006D
:101C50008A1127228A15463003178D0001308F0024
:101C60008A11031365228A150430D900C830F400A4
:101C70008A114D218A15D90B362E3F2E482E02305F
:101C8000D900C830F4008A114D218A15D90B412E94
:101C90008A110A12A22F0A108A140A158207CD2966
:101CA000622AE62A6A2BDD2B612CD42C472DCB2D02
:02400E00713F00
:00000001FF
;PIC16F877A
;CRC=32FC  CREATED="12-may-23 11:45"
