:1000000002308A00642A00000A108A100A1182074E
:100010003134323433344134343435343634423488
:1000200037343834393443342A3430342334443484
:10003000A0244E2A4529C121C3244F272029412627
:10004000551000004537F6346137E4373A10A531D2
:100050002010201020102000D232E334E234E437A4
:100060003A10A53120102010201020002B308400E1
:100070008313000803194A280130F800F701F70B31
:100080003F28F80B3E284A30F700F70B4528482850
:10009000800B3C280800320EF039F7000F300605BF
:1000A000770486000000091483160910572883126C
:1000B000091083160910831208000608F700060EBF
:1000C0000F39F800080083160910891009118312EE
:1000D0008910831689100F300605F03886008312C8
:1000E00009158316091100008312091483160910DB
:1000F000000083125D207808B200091083160910F1
:1001000000008312091483160910000083125D2079
:100110007808B1000910831609100F300605860013
:100120008312320EF700F030F70577083104F8003B
:100130007808B100B11F9E2883166B28AF08031DF5
:10014000A3288910A428891483168910000083121B
:100150000911831609110000831209108316091072
:100160008312300EB1000F30B1053108B2004B20C0
:1001700030080F39B100B2004B2008002830A7002A
:100180000C30A8000130A9000630AA00091083161F
:10019000091083128910831689108312091183169E
:1001A00009110F30060586000910891009110F305A
:1001B0008312AB0036200130A6002608033C031C46
:1001C000E9280330B2004B200530AB003620A60AE8
:1001D000DD280230B2004B200530AB003620A601EE
:1001E0002608033C031C00292730260784008313BC
:1001F0000008AB00AF012B08B0006320A60AF0286E
:100200008A110A127D2A8A110A127E2A2C0B0929C8
:100210000C294030AD000D29AD0101302B02AD0796
:100220002D088038AE00AF012E08B0006320080012
:100230002A08073A031926290B3A03192B29063AEB
:1002400003193329023A031939293E290130AB0039
:10025000AC0006214329AF010130B0006320023019
:10026000AB00362043290130AB000230AC00062140
:100270004329AF011030B000632043290130AF00A3
:100280002A08B000632008000B08A6008B13831611
:1002900003178C170C140000000083120313A61B15
:1002A0008B1703170C087F39031998290313A6002D
:1002B00003170D080313A70003170F080313A80063
:1002C0002608AA001821270803178D000313280801
:1002D00003178F0003130B08A9008B138316031752
:1002E0008C170C140000000083120313A91B8B173A
:1002F00003170C0D0E0D7F39031998290313A6005F
:1003000003170D080313A70003170F080313A80012
:100310002608AA001821270803178D0003132808B0
:1003200003178F008D0A03198F0A0313442903173B
:1003300003138A110A128D2AA601A00A2008213C63
:100340000318FC292308FC3E0318BF29043E052A94
:10035000EF308316860083128600BF29DF308316B4
:10036000860083128600BF29BF3083168600831261
:100370008600BF297F308316860083128600211CE9
:10038000CB2906080F390F3C031DCA29211022086A
:10039000A600A201FB2906080F390F3C0319F62914
:1003A00006080139031DD629A701EA2906080239E2
:1003B000031DDD290130A700EA2906080439031DC1
:1003C000E4290230A700EA2906080839031DEA29B2
:1003D0000330A700270DF700F70DFC30F70577086D
:1003E00023070420F800A2002114FB29A30A2308F4
:1003F000043C0319A301A001FF3083168600831279
:100400002608F8008A110A128E2A0A108A140A1184
:100410008207A829AE29B429BA290B08A7008B1393
:10042000831603178C170C140000000083120313AB
:10043000A71B8B170318442A03170C087F390313D3
:10044000A70003170D080313A80003170F080313D1
:10045000A9002708AA001821280803178D000313F4
:10046000290803178F0003130B08AA008B138316A8
:1004700003178C170C140000000083120313AA1B2F
:100480008B17A60B442A632A03170C0D0E0D7F3918
:100490000313A70003170D080313A80003170F0881
:1004A0000313A9002708AA001821280803178D00A4
:1004B0000313290803178F008D0A03198F0A0310ED
:1004C0000313A60B0D2A080003081F3983001930F7
:1004D00083169900A63098009030831298008316F6
:1004E0001F149F141F159F1107309C008313831244
:1004F000A0012110A201A301BE28032983168113A4
:1005000002308312AB000130AC0006211830031713
:100510008D0000308F00031344299C297808A40023
:10052000A4080319B32A0130AB000230AC00062145
:10053000223003178D0000308F0003100A300313A0
:10054000A6000D222408AA001821283003178D00C8
:1005500000308F00031007300313A6000D2224087B
:100560000C1EB02A99008C1ED52A8C1EB52A1A089A
:10057000A5000130AB000230AC0006212C3003177F
:100580008D0000308F0003100A300313A6000D22E7
:100590002508AA001821323003178D0000308F0083
:0E05A000031007300313A6000D228D2A6300FE
:02400E00713F00
:00000001FF
;PIC16F877A
;CRC=6E65  CREATED="12-may-23 18:44"
