:1000000002308A00612A00000A108A100A11820751
:100010003134323433344134343435343634423488
:1000200037343834393443342A3430342334443484
:100030002021E9326E3B65376932EF3920000A280A
:10004000F232F3346F37651055376110D4326336AE
:1000500061000C2AE531EC3020287536F330E430AD
:100060003A10A53100002A308400831300080319D8
:1000700047280130F800F701F70B3C28F80B3B2824
:100080004A30F700F70B42284528800B3928080032
:10009000310EF039F7000F300605770486000000B6
:1000A00009148316091054288312091083160910A5
:1000B000831208000608F700060E0F39F800080042
:1000C000831609108910091183128910831689106B
:1000D0000F300605F03886008312091583160911C2
:1000E00000008312091483160910000083125A209D
:1000F0007808B10009108316091000008312091452
:1001000083160910000083125A207808B0000910E5
:10011000831609100F30060586008312310EF70092
:10012000F030F70577083004F8007808B000B01F09
:100130009B2883166828AE08031DA0288910A128D3
:10014000891483168910000083120911831609117E
:100150000000831209108316091083122F0EB000BD
:100160000F30B0053008B10048202F080F39B0001B
:10017000B100482008002830A6000C30A70001304C
:10018000A8000630A90009108316091083128910EF
:100190008316891083120911831609110F30060581
:1001A00086000910891009110F308312AA0033202C
:1001B0000130A5002508033C031CE6280330B100EC
:1001C00048200530AA003320A50ADA280230B10001
:1001D00048200530AA003320A5012508033C031C54
:1001E000FD2826302507840083130008AA00AE01ED
:1001F0002A08AF006020A50AED288A110A12752A84
:100200008A110A12762A2B0B062909294030AC00E4
:100210000A29AC0101302A02AC072C088038AD0055
:10022000AE012D08AF00602008002908073A031925
:1002300023290B3A03192829063A03193029023ACF
:10024000031936293B290130AA00AB0003214029BC
:10025000AE010130AF0060200230AA0033204029F7
:100260000130AA000230AB0003214029AE0110305A
:10027000AF00602040290130AE002908AF006020A7
:1002800008000B08A5008B13831603178C170C149A
:100290000000000083120313A51B8B1703170C0823
:1002A0007F39031995290313A50003170D080313BC
:1002B000A60003170F080313A7002508A90015219E
:1002C000260803178D000313270803178F00031355
:1002D0000B08A8008B13831603178C170C1400004F
:1002E000000083120313A81B8B1703170C0D0E0DB0
:1002F0007F39031995290313A50003170D0803136C
:10030000A60003170F080313A7002508A90015214D
:10031000260803178D000313270803178F008D0A83
:1003200003198F0A03134129031703130800A501BA
:10033000A00A2008213C0318F7292308FC3E0318D3
:10034000BA29043E002AEF30831686008312860005
:10035000BA29DF308316860083128600BA29BF309F
:100360008316860083128600BA297F3083168600A2
:1003700083128600211CC62906080F390F3C031D75
:10038000C52921102208A500A201F62906080F3967
:100390000F3C0319F12906080139031DD129A601D3
:1003A000E52906080239031DD8290130A600E529F0
:1003B00006080439031DDF290230A600E5290608D6
:1003C0000839031DE5290330A600260DF700F70DB7
:1003D000FC30F705770823070420F800A200211459
:1003E000F629A30A2308043C0319A301A001FF3046
:1003F0008316860083122508F8008A110A12962AAD
:100400000A108A140A118207A329A929AF29B5293C
:100410000B08A6008B13831603178C170C1400000F
:10042000000083120313A61B8B1703183F2A031720
:100430000C087F390313A60003170D080313A70048
:1004400003170F080313A8002608A9001521270881
:1004500003178D000313280803178F0003130B08DD
:10046000A9008B13831603178C170C1400000000CF
:1004700083120313A91B8B17A50B3F2A5E2A0317B0
:100480000C0D0E0D7F390313A60003170D0803137F
:10049000A70003170F080313A8002608A9001521B9
:1004A000270803178D000313280803178F008D0AF0
:1004B00003198F0A03100313A50B082A8A110A12C5
:1004C000AA2A03081F39830083161F149F141F15BF
:1004D0009F1107309C0083138312A0012110A201F9
:1004E000A301831681138312BB2800290430AA00BC
:1004F0000130AB000321183003178D0000308F004E
:10050000031341210230A500FA30AA003320A50BC5
:10051000842A0130AA000230AB0003211F300317E8
:100520008D0000308F000313412197297808A40023
:10053000A4080319AD2A0130AA000230AB00032140
:10054000293003178D0000308F0003101030031383
:0E055000A500082A2408A9001521952A630099
:02400E00713F00
:00000001FF
;PIC16F877A
;CRC=C214  CREATED="11-abr.-23 23:32"
